:020000040800F2
:10000000000002207D030008CD030008AD4B00086E
:10001000B34B0008B94B0008BF4B000800000000BC
:10002000000000000000000000000000BD680008A3
:10003000CD03000800000000576900086769000848
:10004000CD030008CD030008CD030008CD03000850
:10005000CD030008CD030008CD030008CD03000840
:10006000CD030008CD030008CD0300088D1F000854
:10007000991F0008A51F0008B11F0008BD1F000838
:10008000C91F0008D51F0008CD0300084D0900084E
:1000900041090008CD03000851090008CD030008FC
:1000A000CD030008CD030008CD030008CD030008F0
:1000B000CD030008CD030008CD030008CD030008E0
:1000C000CD030008CD030008CD030008791D00080A
:1000D000851D0008CD030008CD030008CD030008EE
:1000E000CD030008CD030008CD030008CD030008B0
:1000F000CD030008CD030008CD030008E11F000870
:10010000CD030008CD030008CD030008911D0008B1
:10011000CD030008CD030008CD030008CD0300087F
:10012000ED1F0008F91F0008052000081120000835
:100130001D20000800000000000000006109000808
:1001400055090008CD03000865090008CD03000823
:10015000292000083520000841200008CD030008B0
:10016000CD030008CD030008CD030008CD0300082F
:10017000CD030008CD030008CD03000800000000F7
:1001800000000000CD030008000000000000000097
:100190009D1D00080000000000000000CD030008C5
:1001A000000000000000000000000000CD03000877
:1001B000CD030008CD030008CD030008CD030008DF
:1001C000CD0300080348044B834202D0034B03B124
:1001D00018477047600C0020600C002000000000F1
:1001E0000548064B1B1AD90F01EBA301491002D099
:1001F000034B03B118477047600C0020600C0020CF
:100200000000000010B5064C237843B9FFF7DAFF71
:10021000044B13B10448AFF300800123237010BDD9
:10022000600C002000000000902A020808B5054B71
:100230001BB105490548AFF30080BDE80840FFF752
:10024000CFBF00BF00000000640C0020902A02080D
:10025000A3F5803A704700BF174B002B08BF134B24
:100260009D46FFF7F5FF00218B460F461348144AC1
:10027000121A1AF0B5F90E4B002B00D098470D4B0F
:10028000002B00D098470020002104000D000D48ED
:10029000002802D00C4805F00BFC1AF031FD2000BC
:1002A000290008F02BFB05F00BFE00BF0000080042
:1002B000000000004D88000800000220600C0020B3
:1002C000F8830020B15A00080000000010B594B077
:1002D000284B002100911A6C42F080521A641B6C6A
:1002E00003F080530093009B234B01911A6842F462
:1002F00040421A601B6803F440430193044607A878
:10030000019B02F037FE0D9B022B15D102F0FEFA85
:1003100060BB0F220223CDE902234FF4A0514FF41A
:100320008053CDE905130490052102A802F028FBB3
:10033000B0FA80F040091AE00123002C079314BFA3
:100340004FF4A0234FF480334FF48002089302232C
:100350000C20CDE90D32B422CDE90F0207A8CDE97A
:100360001133139302F038FC0028CFD0002014B0D2
:1003700010BD00BF0038024000700040DFF834D0EC
:100380000D480E490E4A002302E0D458C4500433ED
:10039000C4188C42F9D30B4A0B4C002301E01360C4
:1003A0000432A242FBD303F033F8FFF755FF704746
:1003B0007047000000000220C8010020600C0020EF
:1003C000382D0208600C0020F8830020FEE70000B2
:1003D00008B50020FFF77AFF10B9024805F0A0FA2F
:1003E00008BD00BF40DA0108F0B5A1F1F0039BB2EF
:1003F0000F2B85B004460D461AD93C49284604F017
:1004000051F93A490746284604F062F92760014647
:100410000646284601F0E8F80021284601F074F964
:100420002268511C10D132493248342205F07AF842
:100430003149284604F036F92F490746284604F08A
:1004400047F927600646EBE7731C03D128492B4880
:100450003522EBE70121E1612949A4F84850002346
:10046000C6F384368A42C4E90133C4E90A3384F806
:100470004A6023642361237684F820306362E3605A
:1004800084F83030636111D101931E4B5A6C42F4F1
:1004900080725A645B6C03F480730193019B204665
:1004A00001F000FF00B3184805F03AFA17498A42F4
:1004B0000BD10293134B5A6C42F400725A645B6C7A
:1004C00003F400730293029BE9E711498A42E6D1E3
:1004D00003930C4B5A6C42F480625A645B6C03F4D5
:1004E00080630393039BDAE705B0F0BD54D801089D
:1004F000C4DA0108D6DA010848D8010800DB01088F
:10050000002001400038024019DB010800210140B1
:100510000022014030B5044685B010220021684613
:100520001AF05EF894F84A200123CDE90133122A2B
:100530004DD8DFE802F00C0B0A27292B2D2F313381
:100540003537393B3D3F4146480002230093214D5A
:100550006B6823F4400369466B60204602F01CF888
:10056000204601F045FF0A21204601F0BFFF60BB95
:10057000204602F00EF880B26B6823F440036B60F3
:1005800005B030BD0323E1E70423DFE70523DDE702
:100590000623DBE70723D9E70823D7E70923D5E7B5
:1005A0000A23D3E70B23D1E70C23CFE70D23CDE7B5
:1005B0000E23CBE70F23C9E7074B009307230293D2
:1005C000C5E71123F9E71223F7E70020D4E700205D
:1005D000D6E700BF002301401200001073B501F000
:1005E000E5F9041E2CDB174E56F82400002827D00E
:1005F0004423154D6343EB581A68120606D5DB6891
:10060000190603D5114B01211B6898474423634306
:10061000EB581A68920608D5DB68980605D50B4B8F
:1006200056F824001B680021984744235C432B594B
:100630001A68110704D55A69D20744BF5B68019351
:1006400002B070BD180E0020800C00207C0C002031
:100650000148FFF7C3BF00BF001401400148FFF786
:10066000BDBF00BF005000400148FFF7B7BF00BF4B
:10067000004C00400148FFF7B1BF00BF00480040F8
:100680000148FFF7ABBF00BF004400400148FFF73F
:10069000A5BF00BF00100140044A4109012300F03A
:1006A0001F00834042F82130704700BF00E100E0A6
:1006B0004309064900F01F0020330122824041F81F
:1006C0002320BFF34F8FBFF36F8F704700E100E02F
:1006D000034B19604168034B43F82120704700BF6A
:1006E0007C0C0020180E002030B4D0E900352B48D7
:1006F000834237D020D8A0F5006083422CD000F58B
:10070000806083422BD0A0F50060834221D000247A
:10071000204644236B43224DEB584AB3DA6821BB91
:1007200042F02002DA601F4B00F110029B6843F890
:10073000224030BCFFF7B0BF1B48834206D000F513
:1007400080608342E3D1194C4720E2E7184C252012
:10075000DFE7184C2620DCE7174C2720D9E7174C99
:100760003420D6E7164C3520D3E742F08002D9E793
:10077000DA6849B922F02002DA60DB6813F0800FF2
:1007800009D130BCFFF794BF22F08002DA60DB6849
:1007900013F0200FF4E730BC704700BF005000405A
:1007A000800C002000ED00E0001001405106000820
:1007B0008D06000881060008750600086906000815
:1007C0005D06000838B545680446204601F08CF8FF
:1007D0000028FAD044235D436269074B5B591AB97C
:1007E0005868C0F3080038BDE268586812B900F0D4
:1007F0007F00F8E7C0B2F6E7800C002070B54668CD
:1008000005460C46284601F087F80028FAD0442314
:100810005E43034B9B59C4F308045C6070BD00BF8A
:10082000800C002008B5FFF775FE07EE900A9FEDDB
:10083000047AF8EE677A67EE877A17EE900A08BDB9
:100840000108803943692DE9F041DF0704460D4670
:100850002BD536498768364E82688368354807EA63
:10086000010CB94308BF012102EA060208BFA160DA
:10087000B24208BF4FF4807103EA000308BFA160D1
:10088000834204BF4FF48031A16028498C4505D0D4
:1008900027498A4202D0274A934206D1264B274A4B
:1008A0001B6852F8250001219847E26863699607A2
:1008B0000CD098070AD56369204A23F002036361CC
:1008C0001D4B52F825001B6800219847A1696269F9
:1008D000636989070AD5970508D51E0406D5164B06
:1008E000164A1B6852F8250005219847A1696269DC
:1008F0006369480702D46369BDE8F0815105FAD500
:100900001A040BD463691B04F6D50B4B0B4A1B6806
:1009100052F825000221BDE8F0411847074A064B6E
:1009200052F825001B6807219847EBE703000004F5
:100930000003000800000310300E0020340E0020D9
:1009400001480021FFF77EBF00640040FFF7F8BFB9
:10095000FFF7F6BF01480121FFF774BF00680040B0
:10096000FFF7F8BFFFF7F6BF044B1960044B416C6B
:1009700043F821200023C364704700BF300E0020DD
:10098000340E00200268416C536923F4064323F0BF
:1009900013035361024A002342F82130C3647047B5
:1009A000340E00200368104A93420DD10F4B1A6A8F
:1009B00042F000721A621A6A22F000721A621A6C0D
:1009C00022F000721A647047094A9342FBD1074B28
:1009D0001A6A42F080621A621A6A22F080621A620F
:1009E0001A6C22F08062EDE700640040003802409B
:1009F000006800402DE9F0410C46064602F05AF826
:100A0000B0FBF4F118248D08B1FBF4F41920A4B262
:100A1000AC4202D30020BDE8F0810134A4B2E74328
:100A200004FB0002162391423CD0013B3A44FAD128
:100A3000EEE700F05BFDA0EB080002282FD87368FA
:100A4000DA07F6D5F2691F4B1340F361F2692B0503
:100A500003F4E0031343C4F309043F04234307F4FE
:100A600070273B4343F08073F361336823F0010345
:100A7000336000F03BFD044604E000F037FD001B4E
:100A8000022804D87368DB07F7D40120C3E7B169F3
:100A9000B2690D48002392B2090C04F041FF0B48E3
:100AA00004F03EFF0A4A366852F8337002EBC30185
:100AB00033684D6843F00103336000F017FD804652
:100AC000BDE700BF00FC80FC2FDB01085ADB0108FA
:100AD00038F1010810B5044601F035FB10B10648A5
:100AE00004F01EFFA16C2046FFF784FF012801D00F
:100AF0000248F5E710BD00BF74DB01088ADB01087E
:100B000084B030B504AC84E80E00026893685801E4
:100B10000D469DF81E103CD493681B013BD4906891
:100B200010F0805031D002231C0102EB0313490066
:100B3000D3F8800100F00100C3F880019DF81D008A
:100B400058BBD3F8800141EA45510143C3F88011F5
:100B5000D3F8841121F00F01C3F884119DF81C1003
:100B6000D3F8840101F00F0101432244C3F884113A
:100B70000599C2F888110699C2F88C11D3F8802122
:100B800042F00102C3F880210120BDE8304004B0EA
:100B900070470023C8E70123C6E7D3F8800140EA85
:100BA000C500014341F00401D0E7036810B50446D5
:100BB000D86810F003003FD0D3F8B021C2F3800210
:100BC0004A73002A39D1D3F8B021520D0A60D3F804
:100BD000B021C2F340028A73D3F8B421120756BF82
:100BE000D3F8B421082202F00F020A73D3F8B82117
:100BF0000A71D3F8B821120A4A71D3F8B821120C3D
:100C00008A71D3F8B821120ECA71D3F8BC210A72C6
:100C1000D3F8BC21120A4A72D3F8BC21120C8A7292
:100C2000D3F8BC21120ECA72DA6842F02002DA60F0
:100C3000E36C012B05D0012010BDD3F8B021D20800
:100C4000C4E72268536943F002035361F3E770B5C8
:100C5000012B8AB024D8C3B955014E011A460E990A
:100C6000059100240121CDE90641CDE900630891F9
:100C70000E236946CDE902520494099301F0E6F986
:100C8000B0FA80F040090AB070BD4E0B550BC90098
:100C9000D20089B292B241F0040342F00402DEE7CE
:100CA0000020F0E7F0B50B680D46591C87B00446EC
:100CB000174605D13549364840F2DF3204F032FCA0
:100CC000344A934247D102F5EA3200230393116C70
:100CD00041F000711164126C02F000720392039AE9
:100CE0006364A968B5F9040000F07EFC2969B5F9D0
:100CF0000C0000F079FCB5F90400012100F004FDBE
:100D00000121B5F90C0000F0FFFC2B6823604FF4C3
:100D1000A0224FF4E0030026C4E904230223636009
:100D20002046C4E90666C4E90866C4E90A66C4E95F
:100D30000266A764FFF7CEFE2B68164A934214BFE3
:100D40000E23334600933246334631462046FFF7A2
:100D50007EFF07B0F0BD104A9342FAD10F4B00213D
:100D600004911A6C42F000721A641A6C02F000725C
:100D70000492049A05911A6C42F080621A641B6C0A
:100D800003F080630593059B0123A9E70BDC0108B1
:100D900015DC010800640040006800400038024093
:100DA0002DE9F0430D4687B00646154928461446FE
:100DB0001F4603F077FC13498046204603F072FC7F
:100DC0000146404603F04AFC0D498146284603F09F
:100DD0007FFC0C498046204603F07AFC3A46059099
:100DE00001A93046CDF80490ADF80850CDF80C803C
:100DF000ADF81040FFF756FF07B0BDE8F08300BF25
:100E00001CD70108E0D6010830B5354B05689D4276
:100E100032D107291ED8DFE801F0041E221D1D274C
:100E20001D2B01232F4CC36402211423002A52D00E
:100E30006A690A436A612C4A03F11001926842F818
:100E400021400122590903F01F0302FA03F3274A44
:100E500042F8213030BD264C01211323E6E7254C12
:100E60004FF400411623E1E7224C4FF40071F9E7FB
:100E7000204C4FF48061F5E71F4B9D42EAD10729D2
:100E8000E8D801A353F821F0A90E0008B50E000818
:100E9000BD0E0008550E0008550E0008C70E0008CC
:100EA000550E0008CF0E00080123C364134C022125
:100EB0004023BBE7124C01213F23B7E7114C4FF40D
:100EC00000414223B2E70F4C4FF40071F9E70D4C9B
:100ED0004FF48061F5E76A6922EA0102AAE700BFE0
:100EE000006400404109000800ED00E000E100E07E
:100EF0004D09000851090008006800405509000824
:100F0000610900086509000830B591FAA1F391FA6A
:100F1000A1F1B3FA83F304685B000325B1FA81F110
:100F200005FA03F3490024EA03038A401A430260E6
:100F300030BD000000B5384B89B00022072867D8C3
:100F4000DFE800F004121E2A36424E5A00921A6B55
:100F5000324842F001021A631B6B03F00103009355
:100F6000009B09B05DF804FB01921A6B2C4842F01B
:100F700002021A631B6B03F002030193019BF0E76B
:100F800002921A6B274842F004021A631B6B03F0AB
:100F900004030293029BE4E703921A6B224842F097
:100FA00008021A631B6B03F008030393039BD8E743
:100FB00004921A6B1D4842F010021A631B6B03F077
:100FC00010030493049BCCE705921A6B184842F077
:100FD00020021A631B6B03F020030593059BC0E7F7
:100FE00006921A6B134842F040021A631B6B03F01F
:100FF00040030693069BB4E707921A6B0E4842F033
:1010000080021A631B6B03F080030793079BA8E71A
:101010000A4804F085FC00BF00380240000002408E
:101020000004024000080240000C02400010024090
:101030000014024000180240001C024033DC01088A
:10104000431C10B5044604D106490748772204F032
:1010500069FA4FF4707100F0C7FA04F00F04012030
:10106000A04010BDB5DC0108C0DC01084B1C70B508
:1010700004460E46018216D0C1F30310FFF75AFF53
:1010800005463046FFF7DCFF238A074A656103F017
:101090000F03206052F82330A36105F110031835C7
:1010A000C4E90255636070BDF0F10108B0F91000A9
:1010B00000F02ABB0A46D0E905010AB9FFF724BFB0
:1010C0000122FBE7224A4C232DE9F04103FB0022D9
:1010D000204E0446002596460127DEF8000007FA58
:1010E00005F303422AD0536B706907FA03F31842E1
:1010F00024D05068D2F81CC07361F8B1F26833EAAA
:10110000020203D1B26833EA020213D1114A916894
:1011100033EA010103D1D26833EA02020CD1DCF8D0
:1011200010201A420CBF022101210B4BBDE8F041F7
:101130001B6818470221F8E70121F6E70135A942AB
:1011400002F10402C9D10548214604F0E9FB00BFC1
:101150003C0E0020003C014054100020D3DC01086C
:1011600006210846FFF7AEBF05210846FFF7AABFD4
:1011700001210420FFF7A6BF01210320FFF7A2BF32
:1011800001210220FFF79EBF01210846FFF79ABF09
:1011900001210020FFF796BF012910B514D18389E2
:1011A000154C03F00F039940836832B1A2681143D4
:1011B000A16043F00103836010BDA26822EA01022E
:1011C000A26023F00103F6E70229F5D183890A49D9
:1011D00003F00F0301249C4083682AB1CA682243AC
:1011E000CA6043F00203E6E7CA6822EA0402CA6062
:1011F00023F00203DFE700BF003C0140B0F90C30F0
:1012000003F00C0202F1804202F59C3203F003016C
:1012100070B5890094680F258D4003F00F06C3F365
:10122000031324EA05048B40234393600F4A0123F0
:101230001168B340194311608468E50742BF9168A3
:1012400019439160A10742BFD1680B43D36090F965
:101250000030002B08DB0122590903F01F0302FABA
:1012600003F3034A42F8213070BD00BF003C014047
:1012700000E100E02DE9F74F99464B1C05460C466E
:1012800090467AD004F0E2F9002301933C4B3D4EA6
:101290005A6C42F480425A645B6C03F480430193BD
:1012A000019B394B04F00F0A0C2202FB0A32C4F3F3
:1012B0000310D2F804B0328842FA0AF717F0010797
:1012C00002D0324804F02CFB012101FA0AF10A4352
:1012D0003280BBF1060F4ED8DFE80BF004414345E6
:1012E00047494B002A4EFFF725FE274BAC810C21C6
:1012F00001FB0AF15A184FF0000CC5F808C04FF076
:101300004C0C5C5892F9082022492A700CFB0BFC0B
:101310004FF0010E51F80C30C5F804B00EFA04FE7F
:1013200043EA0E0341F80C30132303FB0B4401EB9B
:1013300084031032D861C3F80490C3F834A0164B6C
:10134000C3F80080154B9B68284643F82260FFF7DE
:1013500055FF04F091F9384603B0BDE8F08F104E08
:10136000C1E7104EBFE7104EBDE7104EBBE7104E71
:10137000B9E7104EB7E71048A4E70F46EBE700BF08
:10138000003802405010002078F00108FCDC010811
:10139000911100083C0E00205410002000ED00E0E8
:1013A00089110008811100087911000871110008E5
:1013B000691100086111000825DD010882892649AC
:1013C00002F00F020C235343F0B5CC58CD18234B39
:1013D0006D689E68012101FA02F226EA02069E600B
:1013E000DE6826EA0206DE601E6826EA02021A604D
:1013F00013261B4A01FA04F706FB054402EB84049A
:10140000646BA1405C690C4218BF59614C235D4379
:101410005359BB431FD190F90030002B0DDB5A0903
:10142000012103F01F03994002F120030D4A42F805
:101430002310BFF34F8FBFF36F8F90F90030002B55
:1014400009DB5A09012103F01F03994002F16003EF
:10145000044A42F82310F0BD78F00108003C014036
:101460003C0E002000E100E0F8B5054604F0EEF87F
:10147000AB896E680C2203F00F035343154A2846CC
:10148000D458FFF79BFF4C23134A73430121D558CF
:1014900001FA04F725EA0705D550132303FB064399
:1014A00002EB830500246C609D1D0C3302EB850567
:1014B00002EB830283895460084A6C6003F00F03D7
:1014C0009940138823EA01031380BDE8F84004F033
:1014D000D3B800BF78F001083C0E00205010002067
:1014E00008B500F079FC002008BD000038B504F014
:1014F000ADF8124B124913485C6A02680B889B1ABC
:101500002344B3F5803F17D34FF47A75B3FBF5F25C
:1015100005FB123305E00132A3F57A73B3F57A7F48
:10152000F9D20460084C9BB20B80236813442360FB
:1015300004F0A2F8206838BD0022EFE7000C00405C
:1015400058100020601000205C1000207047704789
:1015500010B5FFF7FCFF01F069FF00F087FE0B4BB1
:101560001C6F14F0020404D101F094F9204601F03C
:10157000DFFAFEF72DFF01F059FF00F0F7FCFFF74F
:10158000E5FF034B01221A6010BD00BF0038024086
:101590006410002030B591FAA1F391FAA1F1B3FAE9
:1015A00083F384685B000325B1FA81F105FA03F344
:1015B000490024EA03038A401A43826030BD30B5F3
:1015C00091FAA1F391FAA1F1B3FA83F3C4685B0035
:1015D0000325B1FA81F105FA03F3490024EA030374
:1015E0008A401A43C26030BDB0F1FF3F2DE9F84395
:1015F00080460E467FD000F00F02404BC0F3031030
:1016000053F82250C1F3831901F00707FFF792FC4A
:10161000B9F10F0F0CBF03224A4629460446FFF7D3
:10162000B9FF032F5ED8DFE807F062642C020323C2
:1016300095FAA5F2B2FA82F221685200032000FA6C
:1016400002F221EA020195FAA5F2B2FA82F2520000
:101650009340013F0B43012F236005D86368320795
:101660004CBF2B43AB436360C6F30112012A02D087
:10167000022A18BF002229462046BDE8F843FFF79A
:101680009EBF18F0080FC6F3832217D02B0A93FAD7
:10169000A3F1B1FA81F1406A93FAA3F389004FF004
:1016A0000F0CB3FA83F30CFA01F19B0020EA01015D
:1016B00002FA03F30B4363620223B9E795FAA5F339
:1016C000B3FA83F3016A9B000F2000FA03F321EAC7
:1016D000030195FAA5F3B3FA83F39B009A400A43FA
:1016E0002262E9E706490748D52203F01BFF0023E1
:1016F0009EE701239CE7BDE8F88300BFF0F10108F5
:10170000ADDD0108B5E8010838B5431C0D4634D0FD
:1017100000F00F02194BC0F3031053F82240FFF7FB
:1017200009FC94FAA4F2B2FA82F25200016803238F
:1017300093400B4094FAA4F26AB1B2FA82F25200DA
:10174000D340013B012B06D8EB1E022B436894BF0C
:101750002343A3434360013D042D0CD8DFE805F08B
:101760000309030B090001222146BDE83840FFF7B9
:1017700026BF0222F8E70022F6E738BDF0F10108A3
:101780000FB407B5064B07491B6805AAD868019234
:1017900003F075FE03B05DF804EB04B0704700BFC2
:1017A000000A0020B6DD01080368474A934210B5DD
:1017B00004461ED102F59432516A41F01001516283
:1017C000516A21F010015162516C21F010015164F5
:1017D0003E4A93421DD13E4B5A6A42F020025A6261
:1017E0005A6A22F020025A625A6C22F020025A648D
:1017F0000FE0384A934236D1354B1A6A42F4003230
:101800001A621A6A22F400321A621A6C22F4003246
:101810001A64B4F9180040F2C331FFF7E5FEB4F9D9
:101820001A0040F2C331FFF7DFFE236A23F400738E
:10183000B3F5807F05D1B4F9240040F2C331FFF73E
:10184000D3FE236A23F48073B3F5007F05D1B4F986
:10185000260040F2C331FFF7C7FE62681E4B00212D
:1018600043F8221010BD1D4A93420CD1184B1A6A3E
:1018700042F480221A621A6A22F480221A621A6CD6
:1018800022F48022C4E7164A93420CD1104B1A6A04
:1018900042F400221A621A6A22F400221A621A6CB6
:1018A00022F40022B4E70F4A934291D1084B1A6AFE
:1018B00042F480121A621A6A22F480121A621A6CB6
:1018C00022F48012A4E700BF001001400014014080
:1018D0000038024000440040180E0020004800403C
:1018E000004C004000500040436844225343094AE2
:1018F000D3581A68120782B006D5002201921A68DE
:1019000001925A680192019A1868C0F3401002B01F
:10191000704700BF800C0020436844225343034AB1
:10192000D3581868C0F3C010704700BF800C002067
:1019300030B44468144A0346442161431D6855503D
:10194000881899684160D96881601969C1605969CE
:101950000161196A81610021C1848184C185818509
:10196000C161B3F91A1001310CD0B3F91830591C08
:101970000CBF04230C23442101FB042230BC53611F
:1019800001F017BD0823F6E7800C002010B5816038
:101990000C46FFF7CDFF28B121460348BDE81040B3
:1019A000FFF7EEBE10BD00BFB6DD0108124B984236
:1019B00017D0A3F54C43984215D003F580639842A5
:1019C00013D003F58063984211D003F580639842E9
:1019D0000FD003F5444398420CBF05204FF0FF3071
:1019E0007047002070470120704702207047032095
:1019F00070470420704700BF001001402DE9F047F8
:101A00000F4686B0634904463846164602F04AFE41
:101A100061498246304602F045FE0146504602F0DA
:101A20001DFE5C490546384602F052FE5A49814681
:101A3000304602F04DFE2A2F80460AD02B2E08D0C9
:101A400054492A2002F02EFE50450CD1534803F091
:101A500067FF4FF0010A691C256007D150495148C2
:101A6000412203F05FFD4FF0000AF4E74E4B9D4228
:101A70004FF000031AD100934C4B5A6C42F0100205
:101A80005A645B6C03F010030093009B484B9D422B
:101A90001AD100230593454B5A6C42F020025A6438
:101AA0005B6C03F020030593059B0DE0414A9542D2
:101AB00014D101933D4B1A6C42F400321A641B6C32
:101AC00003F400330193019B2846FFF76FFF60602A
:101AD000013030D132493848A022C2E7374A954216
:101AE0000BD10293314B1A6C42F480221A641B6CA6
:101AF00003F480230293029BE6E7314A95420BD11F
:101B000003932A4B1A6C42F400221A641B6C03F4F0
:101B100000230393039BD7E72A4A9542B6D1049347
:101B2000224B1A6C42F480121A641B6C03F480136B
:101B30000493049BC8E749463846FFF755FD012149
:101B40003846FFF7E1FD41463046FFF74DFD304690
:101B50000121FFF7D9FD00234FF4E132C4E902234C
:101B6000C4E904332362278366832046FFF7E0FE3F
:101B7000BAF1000F0AD0144B144801221A60214612
:101B80004C2206B0BDE8F04719F03AB906B0BDE8FE
:101B9000F08700BFD0D7010858D70108E0DD010861
:101BA00076DE010883DE01080010014000380240A3
:101BB00000140140004400409FDE0108004800403E
:101BC000004C004000500040B4100020681000207D
:101BD0001E4BD86810F4005018BF18681C4BDA6808
:101BE0001CBFC0F3801080F00100920441BF1B684D
:101BF000C3F3801383F001031843164BDA68910492
:101C000041BF1B68C3F3801383F001031843124BD9
:101C1000DA68920441BF1B68C3F3801383F00103A9
:101C200018430E4BDA68910441BF1B68C3F380135D
:101C300083F0010318430A4BDA68920441BF1B6822
:101C4000C3F3801383F00103184370470010014071
:101C50000044004000480040004C0040005000405C
:101C600000140140034A516A536A5B1A8342FBD352
:101C7000704700BF000C004010B5002486B014224D
:101C8000214601A8009418F0ABFC694601A800F0B9
:101C900031FF0F230099019301A8CDE90244059477
:101CA000049400F06DFE10B1024803F039FE06B056
:101CB00010BD00BFB1DE010810B58EB00021342286
:101CC00001A818F08DFC00240E4B00941A6C42F011
:101CD00080521A641B6C03F08053009301A8009B90
:101CE00001F048F9022301930121102301A8CDE955
:101CF0000413079400F070FF10B1034803F010FEC6
:101D00000EB010BD00380240D9DE010808B503F05E
:101D10009DFC064B1868012110F0010018BF084611
:101D200000F0C6FDBDE8084003F0A6BC007000400E
:101D300038B5FFF74DFF0446D8B903F087FC0D4DC9
:101D400000F0E4F80121084600F0C4FD2C60FFF724
:101D5000B3FFFFF791FFFEF73BFB4FF4FA70FFF77D
:101D600081FF00F0EBF801232B60BDE8384003F061
:101D700083BC38BD64100020014B186801F042B9E3
:101D8000C4100020014B186801F03CB9C0100020BD
:101D9000014B186801F036B9BC100020014B1868DF
:101DA00001F030B9B8100020074B084A13601A69D7
:101DB000910707D5DA68920704D56FF002021A611D
:101DC00002F098BE704700BF000C0040D410002005
:101DD0000048704730F2010830B589B001A903A866
:101DE00000F088FE00F066FE00230293204B019075
:101DF0001A6C204C42F008021A641A6C02F00802B5
:101E00000292029A1A6A42F008021A621A6A22F0D0
:101E100008021A62069AA3F50B3323604FF0FF33D2
:101E2000E360154BFAB9B0FBF3F3581E0025606070
:101E300010482561C4E90555A56001F0C3F90F4BB1
:101E40000F4A9B68C3F808210E4B4FF480225A605A
:101E50000848294601F0F0F92268D36823F002030C
:101E6000D36009B030BD4000B0FBF3F00138DDE7CE
:101E700000380240D410002040420F0000ED00E086
:101E8000A91D000800E100E004480268D36823F0BF
:101E90000203D360002101F0CFB900BFD4100020AD
:101EA000014B586A704700BF000C0040054B1B688F
:101EB0006FF0020258631A61DA6842F00202DA60D7
:101EC000704700BFD4100020064B1B686FF0020261
:101ED0001A615A6942F002025A61DA6842F002025B
:101EE000DA607047D4100020034B1A68D36823F0DF
:101EF0000203D360704700BFD4100020024B1B6860
:101F00006FF002021A617047D4100020064B074A96
:101F10001B68596A11605A6B054B1A60054BDA68E9
:101F2000054B1A60704700BFD4100020D01000206D
:101F3000CC100020000C0040C8100020064B074ABF
:101F40001B6812685A62064A12685A63054B1A687F
:101F5000054BDA60704700BFD4100020D01000207D
:101F6000CC100020C8100020000C00401FB5054B0D
:101F70000FCB8DE80F00684605F052FD024B18604C
:101F800004B010BD38F20108B8110020014B5868A8
:101F900000F0C2BB1C110020014BD86800F0BCBB94
:101FA0001C110020014B586900F0B6BB1C11002029
:101FB000014BD86900F0B0BB1C110020014B586ADE
:101FC00000F0AABB1C110020014BD86A00F0A4BB92
:101FD0001C110020014B586B00F09EBB1C1100200F
:101FE000014BD86B00F098BB1C110020014B586CC2
:101FF00000F092BB1C110020014BD86C00F08CBB90
:102000001C110020014B586D00F086BB1C110020F4
:10201000014BD86D00F080BB1C110020014B586EA5
:1020200000F07ABB1C110020014BD86E00F074BB8D
:102030001C110020014B586F00F06EBB1C110020DA
:10204000014BD86F00F068BB1C1100203C4B4A6963
:1020500030B5D3F8004244F00104C3F80042D3F88D
:10206000004224F47C54C3F80042D3F800424D6A85
:1020700044EA0524C3F80042D3F81C5201209040E2
:1020800025EA0005C3F81C52CD69C443002D35D1A3
:10209000D3F80C522540C3F80C52CB688D8845EA22
:1020A0000345D30003F1804303F5C8430A88C3F80E
:1020B00040528D6842EA0542C3F844228B69204AA7
:1020C0008BBBD2F804322340C2F804320D691C4B9A
:1020D0006DBBD2F814522C40C2F814420A6A012A8D
:1020E00002BFD3F81C220243C3F81C22D3F80022FB
:1020F00022F00102C3F80022002030BD012DDDD105
:10210000D3F80C520543C3F80C520B688D8845EA8E
:102110000345D30003F1804303F5C8438A89C3F81C
:1021200040528D68C6E7D2F804320343CCE7012D54
:1021300002BFD3F814220243C3F81422CEE700BF33
:1021400000640040704738B50446002800F08A80DB
:1021500090F83C3003F0FF021BB980F83D20FFF7F8
:10216000F1FF022384F83C3023681A6822F002024F
:102170001A601A6842F001021A60FFF7B7F90546C3
:1021800023685A68D00757D55A68D10767D5A2691E
:10219000012A1A680CBF42F0800222F080021A6005
:1021A000E269012A1A680CBF42F0400222F04002A4
:1021B0001A60226A012A1A680CBF42F0200222F03B
:1021C00020021A60626A012A1A680CBF42F01002EB
:1021D00022F010021A60A26A012A1A680CBF42F0AB
:1021E000080222F008021A60E26A012A1A680CBF8B
:1021F00042F0040222F004021A60D4E902210A43E8
:1022000021690A4361690A43616801390A43DA6155
:102210001A6822F001021A60FFF768F90546236880
:102220005A68D20715D4586810F0010017D101235D
:10223000206484F83C300BE0FFF758F9401B0A2873
:102240009ED9032384F83C30002384F83D300320DA
:1022500038BDFFF74BF9401B0A28E0D9F1E704230A
:1022600084F83C300120F3E77047000008B50B4BC1
:102270001A6842F400721A601A6842F480621A60A6
:102280001A6842F480721A60032000F021FA0F20CD
:10229000FFF726F9FFF7E8FF002008BD003C0240E9
:1022A0007047000038B50446002800F09B80056C9C
:1022B00025B9FFF7F5FF656484F83C50236CDB0615
:1022C00000F18E80236C23F4885323F0020343F043
:1022D00002032364444B5A6822F440325A605A681D
:1022E00061680A435A60236821695A6822F480723F
:1022F0005A605A6842EA01225A605A68A16822F07C
:1023000040725A605A680A435A609A68E16822F437
:1023100000629A609A680A439A603449A26A8A42C3
:1023200052D0996821F07061996099680A439A6067
:102330009A68E16A22F040529A609A680A439A6069
:102340009A6822F002029A609A68217E42EA41026B
:102350009A6094F82020002A3ED05A68616A42F4BC
:1023600000625A605A6822F460425A605A68013921
:1023700042EA41325A60DA6AE16922F47002DA62B2
:10238000DA6A013942EA0152DA629A6822F400728A
:102390009A609A6894F8301042EA41229A609A68EA
:1023A000616922F480629A609A68002042EA812280
:1023B0009A606064236C23F0030343F001032364F9
:1023C000002384F83C3038BD9A6822F070629A602D
:1023D0009A6822F04052B2E75A6822F40062C9E7D4
:1023E0000120EDE70120EEE7002301400100000F8E
:1023F00082B00023019390F83C30012B69D0012377
:1024000080F83C3003689A68D2070BD59A68D107E8
:102410001AD4036C43F010030364436C43F00103CC
:1024200043644CE09A682C4942F001029A602B4ABE
:102430001268B2FBF1F202EB42020192019A002A09
:10244000E4D0019A013AF8E7026C22F4E06222F04B
:10245000010242F4807202645A68520541BF026C64
:1024600022F4405242F480520264026C12F4805210
:102470001CBF426C22F006024264002280F83C201D
:102480006FF022021A60164A516811F01F0F1549A9
:102490001CD18B4207D001F580718B420CD1526860
:1024A00012F01F0F0BD19A6812F0405F07D19A68A3
:1024B00042F080429A6002E00B498B4202D0002039
:1024C00002B07047526812F0100FEBE78B42F6D162
:1024D000E9E70220F4E700BF40420F00D0010020EE
:1024E00000230140002001400022014003689A6857
:1024F000520570B504460D460BD59B68DE0508D520
:10250000036C43F020030364002380F83C30012077
:1025100070BDFEF7EBFF064623681A6891070CD5DD
:102520006FF012021A60226C42F4007222649A6800
:1025300012F0405F17D00020EAE7681CEDD065B9C3
:1025400023681B6813F00203E6D1226C84F83C3048
:1025500042F0040222640320DAE7FEF7C7FF801B83
:10256000A842EDD8D8E7227E002AE4D1DA6A12F434
:10257000700F02D09B685A05DDD4236C23F480735E
:102580002364236CDB04D6D4236C43F0010323645F
:10259000D1E70368D86C7047F7B50023019390F832
:1025A0003C30012B054600F08680012380F83C304A
:1025B00008682B688E68092884B233D904EB44027A
:1025C000DF681E3A4FF0070C0CFA02FC27EA0C07F2
:1025D000DF60DF6806FA02F23A43DA6049680629EA
:1025E00001EB81022DD8596B053A1F26964021EA4E
:1025F00006015963596B04FA02F20A435A632F4ADF
:1026000093420AD1122837D12D4B5A6822F4000286
:102610005A605A6842F480025A60002085F83C00F3
:1026200003B0F0BD1A6900EB400C072707FA0CF75E
:1026300022EA07021A611A6906FA0CF616431E61AD
:10264000CCE70C294FF01F010BD81E6B233A9140A9
:1026500026EA01011963196B04FA02F20A431A63AC
:10266000CDE7DE6A413A914026EA0101D962D96A92
:1026700094400C43DC62C2E7124B984201D011280F
:10268000CBD10F4B5A6822F480025A605A6842F448
:1026900000025A600B4B9842BFD10B4B0B4A1B6890
:1026A000B3FBF2F30A2253430193019B002BB4D0F6
:1026B000019B013BF8E70220B2E700BF0020014088
:1026C0000023014012000010D001002040420F0002
:1026D0000749CA6822F4E0620302120403F4E063CB
:1026E000120C134343F0BF6343F40033CB607047D5
:1026F00000ED00E090F83530022B03D080234365D5
:10270000012070470268052380F83530136823F0F4
:102710000103136000207047F7B5002301935C4B61
:10272000856D1F68C36D2E6808229A4032420446A8
:102730000CD001680868400708D5086820F004003C
:102740000860AA60626D42F00102626501229A404F
:10275000324208D021684969090641BFAA60626D0A
:1027600042F00202626504229A40324208D0216897
:102770000968880741BFAA60626D42F00402626581
:1027800010229A40324210D02368196809070CD5EC
:10279000AA601A68500337D51B68190301D4236C4B
:1027A00000E0A36C0BB120469847E16D20228A40DF
:1027B00032423AD023681868C60636D5AA6094F823
:1027C0003520052A1A6827D122F016021A605A69A4
:1027D00022F080025A61226C0AB9A26C1AB11A68FE
:1027E00022F008021A603F238B40AB60002384F87C
:1027F0003430012384F83530236D002B45D020463A
:1028000003B0BDE8F04018471A68D2055EBF1A68E9
:1028100022F008021A60C2E7500327D51B6819038B
:1028200031D4636C0BB120469847636D6BB3636D15
:10283000DA0719D522684FF41653B7FBF3F70523CF
:1028400084F83530136823F001031360019B0133D2
:10285000BB42019302D81368DB07F7D4002384F846
:102860003430012384F83530E36CC6E71A6812F47B
:10287000807208D1196821F010011960012384F8D1
:10288000342084F83530E36BCCE703B0F0BD00BFF3
:10289000D0010020044B012282B01A62034B1B6856
:1028A0000193019B02B0704700000E42007000408F
:1028B000074A1369012923F00403136104D130BFCF
:1028C00000BF00BF00BF704740BF20BF20BF7047A0
:1028D00000ED00E00B4A136823F003030343136089
:1028E000094B1A69012942F004021A6105D130BF6F
:1028F0001A6922F004021A61704740BF20BF20BF4E
:10290000F6E700BF0070004000ED00E037B500239F
:102910000193184B184D1A6C42F080521A641B6CCC
:1029200003F080530193019B144B01221A64FEF7BC
:10293000DDFD04466B68DA030BD5104B0E4D01220A
:102940005A64FEF7D3FD04466B689B030AD500204A
:1029500006E0FEF7CBFD001BB0F57A7FEAD9032035
:1029600003B030BDFEF7C2FD001BB0F57A7FEBD996
:10297000F5E700BF003802400070004000000E4242
:102980002DE9F0410D46044610B90120BDE8F08163
:10299000434B1A6802F00F028A4228D321688F073E
:1029A0002DD4C80740D43E4B1A6802F00F02AA4249
:1029B00065D8226851076BD4130707D5394A2169B6
:1029C000936823F4604343EAC103936000F0BCF8CA
:1029D000344B354A9B68C3F30313D35CD840334B65
:1029E0001860334B1868FEF77BFD0020CEE7CAB2B3
:1029F0001A701B6803F00F038B42C6D1CEE7294B38
:102A000011F0040F1EBF9A6842F4E0529A600E075C
:102A100042BF9A6842F460429A609A68A06822F0C5
:102A2000F00202439A60BCE762681E4B012A1CD187
:102A30001B6813F4003FA8D01A4EB36823F00303B9
:102A40001343B360FEF752FD41F288380746B3687E
:102A5000626803F00C03B3EB820FA4D0FEF746FDCF
:102A6000C01B4045F3D9032090E7911E01291B6844
:102A700002D813F0007FDEE713F0020FDBE7EAB2C3
:102A80001A701B6803F00F03AB427FF47EAF90E730
:102A90000449E0688B6823F4E05303438B608BE7C1
:102AA000003C02400038024050F20108D0010020F2
:102AB000CC010020044B054A9B68C3F38223D35CFE
:102AC000034A1068D84070470038024048F20108B5
:102AD000D0010020044B054A9B68C3F34233D35C0A
:102AE000034A1068D84070470038024048F2010895
:102AF000D00100200F2303600B4B9A6802F0030201
:102B000042609A6802F0F00282609A6802F4E05231
:102B1000C2609B68DB0803F4E0530361034B1B684E
:102B200003F00F030B60704700380240003C024086
:102B3000044B1A6F01280CBF42F0080222F0080271
:102B40001A67704700380240204908B58B6803F0C7
:102B50000C03082B07D00C2B20D01D481D4A042B3A
:102B600018BF104608BD4A684B68496813F48003D3
:102B700014BF17481748C1F3881118BF002302F08B
:102B80003F02A1FB000119F0EFFB104B5B68C3F3A0
:102B9000014301335B00B0FBF3F0E3E74A684B68A5
:102BA000496813F4800314BF09480A48C1F3881127
:102BB00018BF002302F03F02A1FB000119F0D4FB73
:102BC000024B5B68C3F30273E5E700BF00380240C5
:102BD00000366E010024F4002DE9F341044600287C
:102BE00031D00368DF0710D423689E0767D42368B9
:102BF000190700F1B28023685A0700F1D280A36957
:102C0000002B40F03981002034E0984B9A6802F0A4
:102C10000C02042A10D09A6802F00C02082A02D191
:102C20005B685D0208D4914B9A6802F00C020C2A92
:102C30000BD15A68510208D58C4B1B689A03D3D527
:102C40006368002BD0D1012014E06268B2F5803FA8
:102C500013D11A6842F480321A60FEF747FC834EA3
:102C6000054633689B03BFD4FEF740FC401B642835
:102C7000F7D9032002B0BDE8F0817C4DB2F5A02F5A
:102C80002B6807D143F480232B602B6843F48033F7
:102C90002B60E2E723F480332B602B6823F480233E
:102CA0002B60002AD9D1FEF721FC06462B689F0332
:102CB0009AD5FEF71BFC801B6428F7D9D9E76B4B2C
:102CC0009A6812F00C0F10D09A6802F00C02082AD1
:102CD00002D15B685E0208D5644A936803F00C0376
:102CE0000C2B11D153685D020ED4604A136899070A
:102CF00002D5E368012BA6D11368216923F0F803FC
:102D000043EAC103136072E7E268594BB2B1012292
:102D10001A60FEF7EBFB554D06462B689B0707D55F
:102D20002B68226923F0F80343EAC2032B605EE7B5
:102D3000FEF7DCFB801B0228EFD99AE71A60FEF74A
:102D4000D5FB4A4E054633689F077FF550AFFEF727
:102D5000CDFB401B0228F6D98BE76269444B82B158
:102D60000122C3F8802EFEF7C1FB404E0546736F6B
:102D70009B073FF540AFFEF7B9FB401B0228F6D991
:102D800077E7C3F8802EFEF7B1FB384E0546736F28
:102D90009F077FF530AFFEF7A9FB401B0228F6D94D
:102DA00067E7324B1A6C12F0805228D101921A6CEC
:102DB00042F080521A641B6C03F080530193019B14
:102DC00001272C4D2B68D8051BD5A368274D012B57
:102DD00027D12B6F43F001032B67FEF787FB234EB0
:102DE000054641F28838336F9A0739D5002F3FF4F2
:102DF00006AF1E4A136C23F080531364FFE60027CE
:102E0000DFE72B6843F480732B60FEF76FFB064609
:102E10002B68D905D9D4FEF769FB801B0228F7D9A6
:102E200027E7052B04D12B6F43F004032B67D0E772
:102E30002A6F22F001022A672A6F22F004022A6711
:102E4000002BCAD1FEF752FB41F2883806462B6FA1
:102E50009B07CBD5FEF74AFB801B4045F7D908E717
:102E6000FEF744FB401B4045BDD902E70038024055
:102E700000004742007000403C4DAA6802F00C027E
:102E8000082A41D0022B3A4B4FF000021A662ED18D
:102E9000FEF72CFB06462B68990122D4D4E90732B1
:102EA0001343626A43EA8213E26A43EA0263226BD3
:102EB00043EA0273A26A5208013A43EA02436B6092
:102EC0002B4B2A4D01221A66FEF710FB04462B6895
:102ED0009A013FF598AEFEF709FB001B0228F6D9D0
:102EE000C7E6FEF703FB801B0228D4D9C1E6FEF734
:102EF000FDFA04462B689B017FF585AEFEF7F6FAD6
:102F0000001B0228F6D9B4E6012B3FF49CAE6B6897
:102F1000E26903F4800191427FF495AE216A03F0E7
:102F20003F028A427FF48FAE616A47F6C0721A4050
:102F3000B2EB811F7FF487AEA26A520803F44031DE
:102F4000013AB1EB024F7FF47EAEE16A03F07062AA
:102F5000B2EB016F7FF477AE226B03F0E043B3EB8B
:102F6000027F14BF0120002084E600BF0038024029
:102F7000000047420F230360204B1A68510356BFDD
:102F80001A684FF4A02202F4803242601A6802F0FC
:102F90000102C2601A68C2F3C40202611A6F5207CA
:102FA00056BF1B6F052303F001038360134B5A6F59
:102FB00002F0010242611A6812F0807F0CBF012208
:102FC000022282615A6802F48002C2615A6802F0E9
:102FD0003F0202625A68C2F3881242625A6802F4DF
:102FE000403202F58032D20B82625A68C2F3036229
:102FF000C2625B68C3F30273036370470038024028
:1030000070470000F0B503685D689A68560685B0A1
:1030100004464FEA9211C2F3801708D4D60706D5AA
:103020006E0604D5036C05B0BDE8F040184796075E
:1030300004D5280602D5636C2046F4E741EA521114
:1030400002F4807001F0010101434FEA521657D09B
:10305000AA0655D57FB194F85120032A4FF00001FC
:1030600048D0626D42F0040262650091DA68009215
:103070009A680092009AF1070CD5626D42F0010245
:103080006265002202929A6802921A6822F0400257
:103090001A60029A40B1626D42F008026265002235
:1030A00003929A680392039A626D4AB35A6822F0B7
:1030B000E0025A60012284F85120AA0722D05A68FF
:1030C000E06C22F003025A6040B1104B0365FFF739
:1030D00011FB18B1636D43F040036365A06C78B1D8
:1030E0000A4B0365FFF706FB50B1636D43F04003E5
:1030F000636505E00191DA6801929B680193019B89
:1031000005B0F0BD2046FFF77BFFF9E7113100085D
:1031100008B5806B0023C387C386FFF771FF08BD26
:1031200070470000254A0368904212D0B0F1804FEA
:103130000FD0A2F57C4290420BD002F58062904203
:1031400007D002F58062904203D002F578429042A7
:1031500008D14A6823F070031343CA6823F440730C
:10316000134316E0164A9042F7D002F5806290426F
:10317000F3D002F580629042EFD0A2F598329042EF
:10318000EBD002F580629042E7D002F58062904277
:10319000E3D04A6923F08003134303608B68C36262
:1031A0000B688362054B984203D003F58063984215
:1031B00001D10B69036301234361704700000140A3
:1031C0000040014010B5044630B390F83D3003F0A4
:1031D000FF021BB980F83C20FFF7A2FF0223206802
:1031E00084F83D30211DFFF79DFF012384F8463010
:1031F000002084F83E3084F83F3084F8403084F872
:10320000413084F8423084F8433084F8443084F804
:10321000453084F83D3010BD0120FCE7036A10B54D
:1032200001F01F0101248C4023EA04030362036AB6
:103230008A401A43026210BD08B529B990F83E30A1
:10324000012B1FD0012035E0042907D190F83F3031
:10325000012BF7D1022380F83F3016E008290CBF7C
:1032600090F8403090F84130013B18BF0123002B0B
:10327000E8D108294FF002030CBF80F8403080F8F5
:10328000413002E0022380F83E3000680122FFF75F
:10329000C5FF164B984203D003F5806398420AD1CC
:1032A000436C43F400434364836803F00703062B35
:1032B00017D1002008BDB0F1804FF5D00C4B9842DB
:1032C000F2D003F580639842EED003F58063984214
:1032D000EAD003F59A339842E6D0A3F594339842A6
:1032E000E2D0036843F001030360E2E7000001401D
:1032F000000400400268C16838B5136923F44053E4
:103300000B431361054683680069D168034368690C
:103310000343E86921F4164121F00C0103430B43F8
:10332000D3605369A96923F440730B4353611F4B66
:103330009A4203D003F580639A4224D1FFF7CAFB77
:10334000EA691921B2F5004FD5E90043A0FB01015C
:103350001CD1DA184FF0000545EB050319F004F80D
:103360006422B0FBF2F102FB1103DB003233B3FB4A
:10337000F2F303F007025B0002EB011203F4F873AF
:103380001344A36038BDFFF795FBD9E79A009B0F64
:1033900018F0EAFF6422B0FBF2F102FB11031B01FB
:1033A0003233B3FBF2F303EB0113EAE70010014001
:1033B000704710B5044640B390F83D3003F0FF026B
:1033C0001BB980F83C20FFF7F3FF2268242384F820
:1033D0003D30D36823F40053D3602046FFF78AFFC3
:1033E00023681A6922F490421A615A6922F02A026B
:1033F0005A61DA6842F40052DA6000202023206427
:1034000084F83D3084F83E3010BD0120FCE7000018
:10341000044B054A9A60D3F8882042F47002C3F83E
:103420008820704700ED00E000000008154B9A6806
:1034300002F00C02042A21D0082A21D159685A68C6
:103440005B684902C3F388134CBF0F490F4902F070
:103450003F02B1FBF2F253430A4A5268C2F30142FF
:1034600001325200B3FBF2F3064A09499268C2F3F3
:1034700003128A5CD340074A13607047024BF3E79C
:10348000024BF1E70038024000366E010024F400E0
:1034900050F20108D001002038B50546044655F821
:1034A000043B9B6898472846FDF7BCF9236805460E
:1034B000DB6820469847284638BD10B50446FFF71C
:1034C000EBFFD4ED147A07EE100A67EE277A17EEB9
:1034D000900A10BD006D704770B50546064655F858
:1034E000044B54B902F006F8346824B9284602F0B7
:1034F000A5FD2C46356002F007F8AC4204D0034924
:103500000348732202F00EF8204670BD70DF0108F8
:103510007FDF010808B50348FFF7DEFFBDE808407C
:1035200002F094BDBC11002008B50348FFF7D4FF9A
:10353000BDE8084002F0A6BDBC11002038B5084B1C
:103540000360044602650D46FFF7E4FF2946201D8F
:10355000FCF74AFF2046FFF7E7FF204638BD00BFD3
:1035600068F2010838B50546064B45F8043B0446A9
:10357000FFF7D0FF284601F004F82046FFF7D4FFFC
:10358000204638BD68F2010810B50446FFF7EAFF8F
:103590002046542102F0CEFC204610BD03680122D3
:1035A0001B6900211847036800221B691146184750
:1035B0006FF01500704780F834130020704780F8D2
:1035C00050120020704790F83403704790F8500272
:1035D000704700207047012070476FF01C00704753
:1035E0000A4B10B5036048330446C0F8E430D0F805
:1035F000380310B103685B68984704F5407002F027
:103600005BFD204600F054FD204610BD80F201080D
:10361000A0F1E400FFF7E4BF10B50446FFF7E0FFB8
:1036200020464FF44F7102F085FC204610BDA0F1FA
:10363000E400FFF7F1BF10B4D0E901320168541083
:1036400001EB6200D20748BF0A595DF8044B48BF3E
:10365000D358184700207047012070476FF01C00B6
:10366000704700F0A9BCD0F8380308B520B100F0CD
:10367000E1FB003818BF012008BD30B5002587B038
:10368000CDE9005502AB0ECB044600F0CBFC84F82C
:10369000365307B030BD30B5012387B00025CDE9E2
:1036A000005302AB0ECB044600F0BCFC84F835534B
:1036B00007B030BD10B5044601F0C8FFD4E940237F
:1036C0009A420ABF94F80841002484F0010401F0F2
:1036D000D3FF204610BD38B500F540750446284696
:1036E00002F0B4FC04F5FA742046FFF7E3FF20B1C2
:1036F000284602F0C7FC002038BD284602F0C2FC74
:10370000012002F01BFC284602F0A0FCECE7A0F12F
:10371000E400FFF7E0BF38B50546E830FFF7CAFF21
:1037200080F001042846E4B2FFF79DFF18B144F48D
:103730000054204638BD95F8FC32002BF9D144F0F6
:103740001004F6E7A0F1E400FFF7E5BF38B5044642
:103750000D4601F07BFFD4F800312A78E2540133A2
:10376000B3F5807F05D90D490D484FF4AF7201F0D4
:10377000D9FE94F8082108BF0023C4F800312AB10B
:10378000C4F80431BDE8384001F076BFD4F8042114
:103790009A4204BF012384F80831F3E70AE00108E4
:1037A0001BE0010870B504460E4601F04FFFD4E956
:1037B00040239A4202D194F80851B5B1E35C3370CA
:1037C000D4F804310133B3F5807F05D909490A489B
:1037D0004FF4AF7201F0A6FE4FF0000208BF13468F
:1037E000C4F8043184F80821012501F045FF28467A
:1037F00070BD00BF0AE001081BE00108C36810B5F6
:103800002BB9044904484FF4FD7201F08BFEBDE86A
:103810001040184795E00108A0E0010884B070B599
:1038200005AC064684E80E0001F010FF94E80F0096
:1038300006F5497585E80F00D6F8303343B147F6F1
:10384000FF713046FFF767FF10B12846FFF7D6FF3C
:10385000BDE8704004B001F00FBFA0F1E400FFF735
:10386000DDBF08B5D0F830331BB100F54970FFF764
:10387000C5FF08BD73B500F1E80504462846FFF70B
:1038800019FF064694F8F03173B9204600F0A8FB02
:1038900050B1204600F03EFC0DF107018DF8070005
:1038A0002846FFF753FFEDE794F836332BB194F831
:1038B000F03113B12046FFF7E0FE4EB12846FFF786
:1038C000F9FE28B9204602B0BDE87040FFF7C9BF35
:1038D00002B070BD10B5044686B001F0B7FE94F892
:1038E000BC30BBB194F83633A3B92046FFF7C2FF12
:1038F00094F8F03173B90A4A0193CDE90323094BD7
:103900000093029402AB0ECB204600F08BFB012308
:1039100084F8363306B0BDE8104001F0ADBE00BFFC
:10392000753800083736000838B5044600F000FB4B
:103930000F4B236000254833C4F8E430C4E97A55BE
:10394000C4E9BD5584F8F05184F8FC5204F5407088
:1039500002F074FB01232046C4F83053A4F834333A
:1039600084F83653C4F83853FFF7B4FF204638BD07
:1039700080F201082DE9F0470646894615469AB3BC
:1039800000F54077384602F061FB06F1E808404652
:10399000FFF790FE0446A0B9404609EB040AFFF782
:1039A00089FE30B9514640460134FFF7FBFEA5427F
:1039B000F2D13046FFF78EFF384602F063FB204617
:1039C00007E096F8343338462BB902F05BFB6FF012
:1039D0000A00BDE8F08702F055FB012002F0AEFAC4
:1039E000384602F033FBD2E71046F2E7A0F1E400DC
:1039F000FFF7C0BF70B500F5407604460D4630466F
:103A000002F024FB2946204600F097FB2046FFF7F2
:103A100061FF304602F036FB002070BDA0F1E400EB
:103A2000FFF7E8BF73B5044690F8FC5200F5FA764C
:103A3000204600F0E6FA58B10DF107013046FFF7D5
:103A4000B1FE28B19DF80710204600F066FBEFE7B5
:103A500094F835333BB104F5FA70FFF72BFE10B143
:103A60002046FFF718FE65B194F8FC324BB92046AA
:103A7000FFF7F9FD28B9204602B0BDE87040FFF716
:103A8000F0BE02B070BDF8B505460C46164600F50E
:103A9000FA773846FFF70EFE20B1A719BC4205D1D0
:103AA0003046F8BD2846FFF7BDFFF2E714F8011BCA
:103AB000284600F032FBF1E730B5044687B001F04C
:103AC000C5FD94F8BD30CBB194F83533B3B9204679
:103AD000FFF7A8FF04F5FA70FFF7ECFD70B90A4B89
:103AE0000294CDE903300125084B0093019502AB08
:103AF0000ECB204600F096FA84F8355307B0BDE8A7
:103B0000304001F0B9BD00BF253A00083736000843
:103B10002DE9F04706460F461546002A43D001F02E
:103B200092FD044630B12A4639463046BDE8F0479A
:103B3000FFF7A9BF06F54078404602F087FA06F580
:103B4000FA7996F8FC3273B9A7EB040AA5420AEB9E
:103B5000040719D996F8FC32B3B939464846FFF73D
:103B6000F5FD0134F2E796F8343393B1404602F0A4
:103B700089FA012002F0E2F9404602F067FA96F86D
:103B8000FC32002BF2D1DFE73046FFF795FFA5426C
:103B9000D7D8404602F076FA002C14BF20466FF0CA
:103BA0000A00BDE8F0871046FBE7A0F1E400FFF74C
:103BB000AFBF70B500F5407604460D46304602F0C2
:103BC00045FA2946204600F003FB2046FFF774FF24
:103BD000304602F057FA002070BDA0F1E400FFF774
:103BE000E8BFE43002F032BAE43002F04BBA00EB46
:103BF00001105430C36803B1184770472DE9F843EA
:103C000005469946154B45F8043B04460F46904639
:103C1000002150222846089E16F0E2FC04F15400D0
:103C200004F1E4030022C26010309842FBD102F09C
:103C300005FA26B10A490B48272201F073FC4B46CE
:103C4000424639462846FDF7ABF828460649224643
:103C5000FCF78AFE2046BDE8F88300BF18F3010890
:103C600009E1010811E10108EF3B000884B073B5D8
:103C7000064607AC84E80E0056F8043B9B680546F0
:103C800098470A9B009394E80E003046FCF738FFF3
:103C90002B680446DB6828469847204602B0BDE8FA
:103CA000704004B070470000F7B506460D4656F860
:103CB000043B17469B680446984730463A462946D7
:103CC000FCF773FF2B7B082B064606D90023064919
:103CD000064800931A4601F051FE23682046DB682F
:103CE0009847304603B0F0BD1EE101081B0110806B
:103CF00084B02DE9F8439DF83460044600F1E408EF
:103D000004EB061709AD404685E80E00543702F073
:103D10009DF90C9AFB6804F10409A2B10BB901F0FA
:103D200047FE95E80F0004EB0614543484E80F00B6
:103D3000012248463146FDF767F84046BDE8F843A2
:103D400004B002F09FB90BB101F048FE0022FA6006
:103D5000EFE70000F0B5104B87B000250446036084
:103D60002F4602AEEBB2CDE90073204696E80E0076
:103D70000135FFF7BDFF092DF4D1251D2846FCF7BD
:103D800001FE2846FCF70EFE04F1E40002F094F96F
:103D9000204607B0F0BD00BF18F3010810B5044677
:103DA000FFF7D8FF20464FF4847102F0C3F8204695
:103DB00010BD000010B5044B044640F8203BFDF751
:103DC00053FB204610BD00BF30F3010810B5044678
:103DD000FFF7F0FF2046502102F0ACF8204610BD5E
:103DE0000346024A2030FDF745BA00BF7F3E000877
:103DF00070B505460E4B45F8043B04460E461C22A2
:103E00000021284616F0ECFB1022002104F12000CE
:103E100016F0E6FB0023E363E36431462046FFF738
:103E2000DFFF2846314600F00FFC204670BD00BF82
:103E300030F30108836840681B681840003818BFD9
:103E40000120704784B070B505AD85E80E000446CA
:103E500001F0FCFB089A04F1200672B195E80F000E
:103E6000303484E80F00012230460121FDF794F937
:103E7000BDE8704004B001F0FFBBE263F4E7012944
:103E800008B502D0022907D008BDC36B002BFBD0B8
:103E90003030FFF7B3FCF7E7C36C002BF4D04030B1
:103EA000F7E77047426810B48AB1D0E9033404F0F0
:103EB000010123B959B161105158CB5801E00029D3
:103EC000F9D1816802EB64005DF8044B18475DF896
:103ED000044B704770B5044600F14C05D0F8C4108F
:103EE000284600F011FED4F8D82092B1D4F8C8309A
:103EF0001BB9D4F8CC30D8070BD5D4E937314E10E4
:103F000004EB6100C90744BFA159CB5894F8D01005
:103F10009847D4F8B8102846FDF738FD22462846C1
:103F20000249BDE87040FCF7D3BB00BF294100083F
:103F3000F8B51E4B03601E4B436000251D4B85608A
:103F400017464C2204460E46C0E90555C0E9075500
:103F5000C360858445634564A0F8485029460061E4
:103F6000104416F03DFBC4E92D57C4F8A45040F2AC
:103F70000113A4F8BC30B388A4F8BE30B389A4F808
:103F8000C0304FF6FF732046C4E93165C4E93655A9
:103F9000C4F8CC5084F8D050A4F8D230A4F8D4306F
:103FA000C4F8E050FFF796FF2046F8BD40F3010843
:103FB000D53E0008A53E000870B50646044656F8F2
:103FC0004C3B0D461B68984730462946FDF7DEFC02
:103FD0002368C4F8B85020465B68BDE870401847B5
:103FE00038B50546044655F84C3B1B6898472846AB
:103FF000FDF77AFC236805465B682046984728460B
:1040000038BD38B50546044655F84C3B1B68984703
:104010002846FDF781FC236805465B6820469847E3
:10402000284638BD84B02DE9F04709AE86E80E0079
:1040300003689DF834701B680546984795F8BC30B6
:104040003C0103B18FB195F8BD300BB1012F0CD0FD
:1040500096E80F002C44983484E80F002B6828461B
:10406000BDE8F0475B6804B0184704F1980801F018
:10407000EDFAA8440C9AD8F80C3005F14C0982B13D
:104080000BB901F095FC96E80F002C44983484E8B5
:104090000F00012239464846FCF726FB01F0ECFAF6
:1040A000DCE70BB101F09AFC0022C8F80C20F1E724
:1040B00070B5124B86B000260360CDE9006602ADF4
:1040C00095E80E000446FFF7ADFF0123CDE900633C
:1040D000204695E80E00FFF7A5FF94F8BC3013B911
:1040E00094F8BD301BB104F14C00FDF75DFB206A74
:1040F00008B101F0D1F9204606B070BD40F30108C7
:1041000010B50446FFF7D4FF2046E42101F012FF6A
:10411000204610BD4C30FCF755BB10B54C300C465A
:10412000FCF76CFB204610BD00EB0110983008B581
:10413000C3680BB1FFF762FB08BD036870B50446A6
:104140001B680D46984794F8BC30AB4217D0E5B9D0
:1041500001F07CFA2A46294604F14C00FCF7C4FA27
:10416000D4F8A4308BBB01F087FA84F8BC5035B981
:1041700094F8BD301BB904F14C00FDF715FB236822
:1041800020465B68BDE87040184794F8BD304BB9D5
:10419000D4E90132511004EB6200D20744BF6258E7
:1041A000D358984701F052FAD4F8A430002BDAD053
:1041B00004F19800FFF722FB01F0FAFB0122002135
:1041C00004F14C00FCF790FACDE701F007FCCAE7D8
:1041D000036870B504461B680D46984794F8BD30D7
:1041E000AB4217D0E5B901F031FA2A46012104F1BA
:1041F0004C00FCF779FAD4F8B4308BBB01F03CFAF0
:1042000084F8BD5035B994F8BC301BB904F14C00AA
:10421000FDF7CAFA236820465B68BDE8704018477E
:1042200094F8BC304BB9D4E90132511004EB620070
:10423000D20744BF6258D358984701F007FAD4F820
:10424000B430002BDAD004F1A800FFF7D7FA01F060
:10425000AFFB0122114604F14C00FCF745FACDE713
:1042600001F0BCFBCAE770B5D0E90213D0E908251C
:104270000446521845EB030300F068F9636B23B161
:1042800004F12800BDE87040184770BD38B50446F9
:10429000154600F045F9064B236000220023C4E9CF
:1042A00008230023636384F83850204638BD00BFDC
:1042B00058F3010813B5044601A801F0F5F82046AB
:1042C00000F04EF9636B23B194F838300BB101F074
:1042D00085FB0023636301A801F0ECF802B010BD78
:1042E00070B5054614461E4600F03AF9C5E9084681
:1042F000A86900F0E9FB221846EB01032846BDE857
:10430000704000F023B984B073B5054607AC01A82E
:1043100084E80E0001F0C8F86B6B23B995F83830CB
:104320000BB101F045FB94E80F0005F1280686E883
:104330000F00DDE90C232846FFF7D2FF01A801F0AA
:10434000B9F802B0BDE8704004B0704710B504463B
:1043500000F0CCFB012201462046FFF797FF024BFD
:104360002360204610BD00BF64F3010830B5436BE5
:1043700085B00446B3B100F128030FCB8DE80F00E0
:104380000023636394F838306D460BB101F026FBCF
:10439000039B2BB9044905484FF4FD7201F0C2F8A4
:1043A0002846984705B030BD95E00108A0E0010817
:1043B00010B5044600F09AFB012201462046FFF7A3
:1043C00065FF024B2360204610BD00BF70F301085B
:1043D000437D10B504461BB1037D0BB101F0FEFA1D
:1043E000204610BD13B5044601A801F05DF8637DB9
:1043F00053B9237D0BB101F0DBFA206900F064FBB7
:10440000C4E900010123637501A801F053F802B06B
:1044100010BD37B504460D4601A801F045F800234C
:104420000022C4E900236B7D4BB1286900F04CFBEE
:10443000D5E90032C01A61EB0201C4E9000101A80C
:1044400001F038F8204603B030BD1FB5044603A87C
:1044500001F02AF821466846FFF7DBFFD4E9023174
:10446000009A9B18019A42EB0102C4E90232637D73
:104470001BB1237D0BB101F0B1FA0023637503A8D2
:1044800001F018F804B010BD30B585B004460D46F3
:1044900003A801F009F829466846FFF7BAFFD5E9F5
:1044A0000221009B9B18019A03A842EB0102C4E978
:1044B000003200F0FFFF204605B030BD13B50446C2
:1044C00001A800F0F1FF206900F0FEFA00220023AD
:1044D000C4E90001C4E9022301A800F0EBFF02B027
:1044E00010BDD0B5002300260027C0E90067C0E951
:1044F00002670446016102754375FFF7DFFF20463E
:10450000D0BD10B5044600F0F1FA01220146204664
:10451000FFF7E7FF204610BD03681B68184700003F
:1045200010B50446074B236000220023C4E9022390
:1045300000230846A161C4E90433034900F052FA9C
:10454000204610BD7CF301081945000807B500900E
:1045500000F10801806900F082FA03B05DF804FB05
:1045600000F10801806900F094BA000010B5034B17
:1045700003600446FFF7F4FF204610BD7CF30108FA
:1045800070477047EFF3108372B6054A117831B95E
:104590000449DB4303F001030B70012313707047E0
:1045A000E4110020E511002008B5EFF31083DB4390
:1045B00013F0010304D006490648362200F0B2FF8A
:1045C000054A1370054B1B7803B162B608BD00BFE6
:1045D0009DE10108B9E10108E4110020E511002086
:1045E000014B1878704700BFE411002070B50E46EB
:1045F00004461546FCF73AFD013609D02046002155
:10460000FCF758FD29462046BDE87040FCF74EBD3A
:1046100070BDF8B50F46044615461E46FCF726FD4C
:10462000013710D020685EB1A368186001212046D0
:10463000FCF740FD29462046BDE8F840FCF736BDB2
:10464000E3680004F1E7F8BD0022FFF7CFBF13468F
:104650000022FFF7DEBF0022FFF7F9BF07B50246D1
:104660008A4208460AD0531C08D0013005D00023E6
:1046700004490548009301F081F9104603B05DF844
:1046800004FB00BFD3E1010830010180B1F9003023
:104690005A1C01D118467047834201D148687047BF
:1046A0000C31F3E7421C13B504460AD0FFF7EEFFC6
:1046B000431C06D10023044904480093224601F01C
:1046C0005DF902B010BD00BFE4E1010830010180D6
:1046D000B1F900305A1C01D118467047834201D10C
:1046E000886870470C31F3E72DE9F041456895F88B
:1046F00032706FBB03685B6898472C6A844227D08E
:104700002B69A96895F934202862041B1C40A1FB81
:104710000441B2B16E6A361941F10001002A19DB79
:10472000C2F12000A2F1200326FA02F401FA00F0FF
:1047300021FA03F304431C43D14004FA02F2B21AF3
:104740006A62D5E90A321B1941EB0201C5E90A3157
:10475000BDE8F081D5F80C80304642463B4617F064
:1047600003FE08FB106604466E62EAE7824206D941
:104770008A420BD9884294BF0020012070478842AA
:1047800006D98A428CBF0020012070470120704763
:10479000002070472DE9F0414668336B23F07F48D5
:1047A00028F0FF080546B8F1000F5CD1FFF79CFF29
:1047B0007368002B59D0D3E90003D6E90A1281426D
:1047C0009A4104D32B68BDE8F0415B6918476C68D7
:1047D000D4E90A12401A63EB020CD4E90572E369CA
:1047E000824273EB0C031FD3E368A3FB000103FBBE
:1047F0000C1194F93330A3B1A26802F1FF3C1CEB19
:10480000000041F10001002B1BDBC3F1200CA3F1E0
:104810002002D84001FA0CFC40EA0C0021FA02F216
:104820001043874228BF0746236A1F4423691F405D
:10483000336ABB4209D11249124840F2C91200F052
:1048400071FE434617F090FDEBE72B6838461B6975
:1048500098472B685B6898473A460146306AFFF7ED
:1048600085FF0028AED1BDE8F0817369306A3269F6
:1048700018442B681040BDE8F0411B69184700BF81
:104880005DE201086FE201084368F7B593F8302054
:104890000446002A76D193F83230002B72D1036897
:1048A0001B6898472368DB69984703682BB936492A
:1048B000364800931A4601F061F8354A1E46114603
:1048C000B6FBF2F201FB12620E46002AF7D16568D0
:1048D0002F4AB2FBF1FC0126C5F808C01F22013A9D
:1048E00003D306FA02F7BC45F9D185F83320B3FBB0
:1048F000F1F21F23EA60012101FA03F6B24201D06E
:10490000013BF9D285F834304168081F1C2805D9CD
:1049100000232049204800931A46CCE720291CBFD9
:1049200001238B404FF007074FF0000607FA00F70E
:1049300014BF03F1FF334FF0FF33501E46F1FF3138
:10494000E7FB0C012B616F61334617F00DFD236807
:10495000C5E90601C5E900665B6898476368286297
:10496000002101220020C3E90A015E6220461A8666
:1049700083F83260FFF7B8FE204603B0BDE8F04090
:10498000FFF708BF03B0F0BD93E201080E010480F9
:1049900040420F00ACE2010805010480F3B4456811
:1049A000069C8C60C1E900236C68002734B9CC6098
:1049B0007FB9696002B0F0BCFFF7ECBE6668019693
:1049C0002668B242019E73EB0606F0D32746E468E0
:1049D000ECE7F960D5E90A4194429941EAD202B084
:1049E000F0BC704738B505460C46FFF74DFF00F0A8
:1049F0002DFE6B681C60BDE8384000F03DBE70B510
:104A0000054600F023FED5E90034DB68984794F8AA
:104A100032301BB1BDE8704000F02EBE012384F897
:104A200031306368A3B12846FFF75EFE6368D4E9BE
:104A30000A62D3E9000186428A4109D36A68DB68C9
:104A4000526863602368002BEBD090689847E8E7D2
:104A5000002384F831302846FFF79CFEDAE72DE981
:104A6000F34104460D4617461E46DDF8208000F04F
:104A7000EDFD2046FFF738FECDF800803A4633467C
:104A800029462046FFF78AFF02B0BDE8F04100F05A
:104A9000F3BD38B505460C4600F0D8FD6A6853688A
:104AA000A34209D1DB6853602846FFF773FEBDE8D7
:104AB000384000F0E1BD1346002BF8D0DA68A2427E
:104AC000F9D1E268DA60F2E738B50446FFF7DCFEB8
:104AD00000F0BCFD2046FFF707FE6368D3E90A45F6
:104AE00000F0CAFD2046294638BD7047004870478F
:104AF00080F30108024B1B680BB10248184770474E
:104B0000D401002080F30108B1F90C20B1F90410A0
:104B1000FCF774BF08B5BFF35F8F1C4BD3F8902030
:104B200012F47C4FC2F3072104D1194919483B22E2
:104B300000F0F8FC0022C3F8942010468A421FD1EE
:104B40001022C3F89C20144AC3F8A0201322C3F8F3
:104B50009C20124AC3F8A0201122C3F89C20104ABE
:104B6000C3F8A0200F4AC3F89C200F4AC3F8A02026
:104B70000722C3F89420BFF34F8FBFF36F8F08BD98
:104B8000C3F89820C3F8A0000132D7E700ED00E099
:104B900045E3010854E3010839F00206390702131E
:104BA0003FF50B131200008039000213102300F0B0
:104BB00007B8202300F004B8302300F001B84023E8
:104BC0009C46F0B404AE7546E80801D3EFF30986BD
:104BD0000E4F0FCE0FC70FBC0FC740464946524677
:104BE0005B460FC71DCE3100A60A00D304316E0903
:104BF00000D248311FC7EFF309806946EFF31486EE
:104C000063C76046014900F077F800BF201200201A
:104C1000F0B52B4E85B000243546214656F8042BBE
:104C20002848013400F0F6FC0D2CF6D1AB6C029351
:104C30006B6C01932B6C244C0093D5E90E23696BAC
:104C4000224800F0E7FC2168214800F0E3FCE16A1B
:104C5000A26AA36AA06A266BE76B000CCDE9016724
:104C60000090C3F307231B48D2B200F0D3FCA36A21
:104C70001E0603D5616B184800F0CCFCA36A18042B
:104C800003D5A16B154800F0C5FCEB6C190712D5D4
:104C9000134800F0BFFC2B6DDA070FD5114800F068
:104CA000B9FCEB6C5B074CBF0F48104805B0BDE882
:104CB000F04000F0AFBC0E4800F0ACFC0D48EEE751
:104CC0002012002061E3010800ED00E06FE301081D
:104CD000BEE30108CCE301081BE4010829E4010854
:104CE00037E4010846E4010876E4010882E401089B
:104CF00066E4010853E4010807B504460D461A4866
:104D0000012100F035FC68BB184800F083FC302C12
:104D100019D0402C1CD0202C1FD11548154C00F068
:104D200079FC154800F076FCFFF772FF134800F09D
:104D300071FC0D4B00221A700023114900932A4682
:104D4000204600F01BFE0F480F4C00F063FCE8E724
:104D50000E480F4C00F05EFCE3E70E480E4C00F0EE
:104D600059FCDEE70024E7E7ED1200208EE401089D
:104D7000B7E401083E01FF80E4E40108EFE4010824
:104D80000EE50108C6E401083F01FF80CFE40108F9
:104D90004001FF80DAE401083D01FF8070B505465F
:104DA0001846136814466FF0004293420E46049969
:104DB00005D229B115F0A4FA431C05D1206070BDBD
:104DC00015B1B34238BFE854236801332360F6E7D6
:104DD0002DE9F04F8DB0914618229DF868309DF86E
:104DE00060A00293074688460DEB02000021DDE932
:104DF000164615F0F5FB029B002B0CBF2023302339
:104E0000BAF1010F049325D1002E54DA644266EB07
:104E10004606D34606AB0393AAF10203DBB2002594
:104E20000593059B012B49D8BAF1020F04F00F033B
:104E30000CBF374A374A2409D25C44EA0674360963
:104E4000039B03F8012B039354EA060305F10105C4
:104E5000E7D10CE0AAF10403D3F1000B4BEB030BF9
:104E600054EA0603D6D130238DF818300125BBF162
:104E7000000F48D0029B3BB11B9B00934A462D2359
:104E800041463846FFF78AFF199B01359D4205DAF6
:104E9000199BAB421DDCBBF1000F0AD0029B3BB952
:104EA0001B9B00934A462D2341463846FFF776FF69
:104EB000013D06AC22E04FF0000BD1E72046314621
:104EC0000A22002317F050FA303204460E46D2B2BE
:104ED000B6E71B9B00934A46049B41463846FFF7C2
:104EE0005DFF199B013B1993D2E7013D1B9A2B5D96
:104EF000009241464A463846FFF750FF002DF4D154
:104F00000DB0BDE8F08F199B9D42C1DBD1E700BF1A
:104F1000EBF30108DBF301082DE9F04F95B01C46D7
:104F2000002383460D4613939246CAB1994217DB7C
:104F30000CBF012301F1FF3510934FF000081AF860
:104F400008308BB9BBF1000F0AD0109B43B9139BFB
:104F5000AB4295BF109A109B0BF803200BF805305D
:104F6000139815B0BDE8F08F252B40F05C8208F156
:104F700001031AF80320203AD2B20D2A07D842F6CC
:104F8000090121FA02F2D20748BF08F102031AF818
:104F900003202A2A1DD14FF0000901330434CDF833
:104FA00028901AF803102E290AEB030240F0E38040
:104FB00051782A292AD000260A275378303BD9B2C3
:104FC000092902F1010040F2D280CAF10103134421
:104FD0001FE0302A13D101331AF80320302AFAD007
:104FE00001220A9253444FF00009194611F8012B8F
:104FF000303AD0B2092804D9A3EB0A03D1E7002242
:10500000EFE70A2303FB09290B46EEE754F8046B8C
:1050100002331AF80320682A40F0B0800AEB03023A
:105020005278682A00F0BA801C22B4498A5C02F0E7
:105030000F01CB180E931AF80370692F00F2EA8063
:10504000572F00F2BC80A7F14603012B00F2E78046
:10505000073424F00704B4EC027B51EC170B8DED00
:10506000087B17F099F96FF000439E420C9107906E
:105070000D9100F03581002E00F05D8101220023AA
:105080000F920B930A229E4200F32C810C9916F08A
:10509000D5FC02460B46DDE9080116F045FB074644
:1050A00088460F980B9916F0C9FC02460B46384605
:1050B000414616F0F1FC0022074688460023DDE950
:1050C000080116F05BFF1190002800F01B81434699
:1050D0003A468B49002016F027FB17F05DF90F9B2D
:1050E00098420B9B88469941074608DB079B013B8A
:1050F00007930C9B63F100030D930027B846731CC4
:10510000A9EB030929EAE979079B0D9A134340F0BB
:105110002D81DDE908010022002316F02FFF002871
:1051200000F024811E9B05930A9BCDE90393042381
:10513000029300220023CDE9002313AA29465846F2
:10514000FFF746FE002E00F03D811E9B009313AA40
:105150002E2329465846FFF721FE1E9B0593012367
:10516000CDE903630023CDE9007802939CE007FBBF
:105170000636024621E76FF000464AE76C2A06D160
:105180000AEB030252786C2A0AD020224DE74C3AEF
:10519000D2B22E2A7FF649AF002248E7722246E7B4
:1051A000822244E7082B3AD8DFE813F021013900C6
:1051B0003900100139006A00390039006A00A7F18E
:1051C0005803112B2BD801A151F823F0815200086C
:1051D0001F5200081F5200081F5200081F520008EB
:1051E0001F5200081F5200081F5200081F520008DB
:1051F0001F5200081F520008B35300083B5200081A
:105200001F52000851500008515000081F5200085A
:105210003B520008A7F17003D9B20829C2D91E9BDE
:10522000009313AA252329465846FFF7B7FD0E9B86
:10523000252F18BF43460E93C4E0822A10D10734AD
:1052400024F007031C465B6854F8082B1E9905914F
:105250000A990092CDE9039101210291019323E083
:10526000112A54F8043B07D0722A15BF1A465AB2C5
:10527000D31743F3C013E9E71AB243F3C033E5E7AA
:10528000822A17D1073424F007021446526854F8D2
:10529000083B1E9905910A99752FCDE9039119D103
:1052A0000021CDE90032029113AA29465846FFF7A2
:1052B0008FFD87E0512A54F8043B09D0722A03D0AD
:1052C000112A03D00022E4E7DBB2FBE79BB2F9E747
:1052D000DA17DEE7582F01D10321E2E70221E0E7E8
:1052E0000626CBE60B9951438C460F99A1FB027120
:1052F00061440F970B910133C5E600BFACF3010881
:105300000000E03F4D4B00223846414616F00EFAB1
:1053100017F042F80F9B98420B9B8846994107462D
:10532000FFF6EDAE079B119F013307930C9B43F1F2
:1053300000030D93E2E60C9916F080FB02460B4643
:10534000DDE9080116F0F0F902460B46CDE9082325
:105350003A4B002216F030FEA0B1079B01330793B1
:105360000C9B43F100030D933746B0461E9B0593FB
:105370000A9BCDE9039301230293079B00930D9BA6
:105380000193DAE6DDE908012D4B002216F0F6FD67
:1053900060B1079B5F1E0C9B63F1000857EA08038E
:1053A0003FF4C0AE0797CDF83480DDE73746B0460E
:1053B000AAE61E9A14F8043B0092294613AA5846FE
:1053C000FFF7ECFC0E9B03F10108B8E554F8047BF1
:1053D0003E443B78002BF5D0B742F3D01E9A0092A2
:1053E000294613AA5846FFF7D9FC0137F1E71E9B5F
:1053F00054F8046B009313AA302329465846FFF74C
:10540000CDFC1E9B009313AA782329465846FFF72C
:10541000C5FC1E9B05930023CDE9033303230293B0
:105420000096F3171AE71E9A0092294613AA5846C7
:10543000FFF7B4FCCDF83880C4E700BF0000E03FC0
:105440000000E0BF0FB41FB50849096806AB8968C2
:1054500053F8042B009100206FF000410393FFF7F5
:105460005BFD05B05DF804EB04B07047000A002056
:1054700013B500240094FFF74FFD02B010BD07B52F
:10548000134600900A4600206FF00041FFF744FDEC
:1054900003B05DF804FB0000024B1B6803B1184722
:1054A000704700BF7412002010B5044600F0CEF81B
:1054B000204610BD10B5044600F0DEF8204610BDB1
:1054C000036870B51B690122002104469847051E38
:1054D0000DDB236802221B690021204698472368C0
:1054E000064629461B69002220469847354628462D
:1054F00070BD0000034B186818B14FF0FF3102F087
:10550000A7BA7047981D0020024B186808B102F036
:10551000BBBA7047981D002012F068BD14F0B8B9EE
:1055200012F0FABB07B50B46009201460022014873
:1055300000F024FA4401FF8003460122D3E84F0F14
:10554000C3E8412FC0B20029F8D17047D0E85F3FCF
:105550005B18C0E8523F002AF8D198B27047D0E8F3
:105560005F3F5B1AC0E8523F002AF8D198B27047FB
:105570000346D3E84F0FC3E8421FC0B2002AF8D158
:10558000704708B500F062F8FEE773B500220146E7
:105590000446022000F03EFB0D2600F057F80022E2
:1055A000254614F8013B23B902B0BDE8704000F075
:1055B00063B80A2B09D10D2A07D001220DF107018A
:1055C00002208DF8076000F025FB01222946022009
:1055D00000F020FB14F8012CE2E7000000B5A3B0B6
:1055E00002460B4601A88421FFF742FF832806D913
:1055F000074B1A681B79CDF883208DF88730002877
:1056000002DD01A8FFF7C1FF23B05DF804FB00BF76
:105610001EE501080FB407B504A951F8040B019168
:10562000FFF7DCFF03B05DF804EB04B07047EFF365
:105630001080C04300F001007047EFF30580003890
:1056400018BF01207047FEF7CBBF000008B5FEF77A
:1056500099FF064A1368591C04D1054905483F22A1
:10566000FFF760FF0133136008BD00BF7812002010
:1056700081E5010891E50108044A136823B1013B63
:1056800013600BB9FEF790BF704700BF781200207F
:1056900008B50B48FFF750FF28B1FFF7D7FFBFF35E
:1056A0004F8F20BFFDE7FFF7C8FF08B1FFF769FF85
:1056B000FFF7BDFF0028F9D0012000F001FC00BF7A
:1056C000EC1200202DE9FF41494C0E46216801F003
:1056D000C043B3F1C04F0CBF4D428DB2C1F307437D
:1056E0008046174643482A46FFF794FF6FF49873A5
:1056F0001D44132D0FD8DFE805F00A5255585B61A1
:105700005E640E0E0E0E0E0E0E0E0E0E0E67A168CD
:105710003948FFF77FFF4046FFF737FF616837489A
:10572000FFF778FF4EB13648FFF72FFF3046FFF7FF
:105730002CFF34483946FFF76DFFA1683248FFF768
:1057400069FF2368314A1A44012A02D9304A934238
:105750003ED1A268002A40D1E368002B45D05968A9
:105760002C48002908BF0146E0690390A069029017
:105770006069019020690090274D2848002A18BFD1
:1057800005462A462648FFF745FF21682548FFF7CA
:1057900041FF254804B0BDE8F041FFF73BBFA168D9
:1057A0002248B6E7A1682248B3E7A1682148B0E7DC
:1057B000A1682148ADE7A1682048AAE7A168204870
:1057C000A7E7A1681F48A4E71F48FFF723FFA2E748
:1057D0001E4A9342BDD00022BEE792F84C20C2F38D
:1057E000C00282F00102D2B2B6E70A49BCE700BFAC
:1057F00080120020D7E5010828E60108D0E601085C
:10580000E1E60108E9E60108EDE60108C2FE007FD5
:105810004001FF80C2E501080DE50108CCE5010863
:1058200001E701085AE70108B0E701083EE6010870
:105830004EE601085DE6010870E6010884E601080D
:1058400098E60108A7E60108BDE601083D01FF80D2
:105850007047000070B5294B8EB010EA200538BFA4
:105860001D460C4616460021302202A814F0B8FE50
:10587000234B01952B44012B039402D9214B9D42CC
:1058800032D1E36B0293636B08931F4B5B69049304
:10589000DA6B05925A6B1B6B06920793FFF7D6FEE5
:1058A0001A4A13680133012B136009D101AD0FCDE2
:1058B000174C0FC40FCD0FC40FCD0FC42B6823603E
:1058C00001AC0FCC134D0FC50FCC0FC50FCC0FC5BE
:1058D00023682B60104B1B68A5F1300053B198472B
:1058E000FFF7CAFE0EB070BD0C4B9D42C9D00296A8
:1058F00001ABC9E7FFF7ACFFF2E700BF0101FF8092
:10590000C2FE007F4001FF80DC020020E812002080
:10591000B4120020801200207C1200203D01FF8084
:105920000FB407B50D4801217546FFF721FE044667
:1059300088B901462A460A48FFF78CFF09482246E3
:105940002146FFF7BFFE049805A90191FFF746FE27
:105950000548FFF71AFEFFF79BFE00BFED1200207F
:105960000001FF80CAE701080CE50108002070472C
:10597000014B1878C0B27047ED12002080B5064682
:105980000C460A480121F04617461D46FFF7F0FD78
:1059900048B9424639463046FFF75CFF029A29462D
:1059A0002046FFF78FFEFFF773FE00BFED120020C9
:1059B00013B5074C01212046FFF7C8FD034628B95F
:1059C0000090228803490448FFF7D8FF02B010BDB9
:1059D000EE120020DFE701082301048013B5094C13
:1059E00001212046FFF7BBFD4FF6FF73984206D119
:1059F00000230093228804490448FFF7BFFF02B048
:105A000010BD00BFEE12002001E80108240104804F
:105A1000034B188880B2B0FA80F04009704700BF8D
:105A2000EE12002008B5FFF711FEFFF7F1FF28B1D5
:105A3000FCF77EF9BDE80840FFF71EBEFCF766F9EB
:105A4000F8E70020704700207047000007B50023EA
:105A50000249034800931A46FFF790FF1FE8010828
:105A60002901018008B5012000F02AFA074A0849F7
:105A700013681844884289BF064B10600C224FF00F
:105A8000FF308CBF1A601846704700BFD801002055
:105A900000FC0120EC83002000207047024B5822BC
:105AA0001A604FF0FF307047EC83002001207047F0
:105AB0000120704708B502F023FF08BD08B502F0C9
:105AC00027FF08BD08B502F029FF08BD08B502F0A0
:105AD0002DFF08BD10B50446037803F00303012B26
